:1000000019C051C05BC01EC01DC01CC01BC01AC09F
:1000100019C018C017C068C015C05BC013C012C09B
:1000200011C010C00FC00EC00DC00CC00BC00AC064
:1000300009C008C011241FBECFEFD4E0DEBFCDBF82
:100040005ED066C0DDCF53985A9A5B9A3898409834
:10005000209A219A229A529A8DB383608DBBE9E649
:10006000F0E080818A608083E1E8F0E08081836055
:100070008083EFE6F0E08081816080838081826010
:10008000808380E090E890938900809388000895B1
:10009000882341F0E3E2F4EF3197F1F700C000006C
:1000A0008150F6CF08951F920F920FB60F92112430
:1000B000289A0F900FBE0F901F9018951F920F92C5
:1000C0000FB60F92112428980F900FBE0F901F901B
:1000D00018951F920F920FB60F9211245A9A0F90F3
:1000E0000FBE0F901F9018951F920F920FB60F9290
:1000F00011245A980F900FBE0F901F901895A3DFF0
:100100007894C2E085B18C2785B982E0C1DFFACF4F
:04011000F894FFCF91
:00000001FF
