:1000000019C020C01FC01EC01DC01CC01BC01AC00C
:1000100019C018C017C016C015C014C013C012C034
:1000200011C010C00FC00EC00DC00CC00BC00AC064
:1000300009C008C011241FBECFEFD4E0DEBFCDBF82
:10004000CAD0E7C0DDCF2098289A219A229A239A15
:100050003B984398ECE7F0E01082808180648083D5
:10006000EAE7F0E086E080838081806E80830895F7
:100070005B9A85E38A95F1F700005B9808959BB140
:100080009F709BB99BB1807F982B9BB9F1CFCF9389
:10009000C82F5A9AF4DF8C2F8295807FF0DF8AE791
:1000A0008A95F1F700C0CF910895CF93C82F5A9841
:1000B000E6DF8C2F8295807FE2DF80E78A95F1F77B
:1000C000CF91089581E0F1DF8FE99FE00197F1F78B
:1000D00000C0000008958AB18C6F8AB98BB183701B
:1000E0008BB98FE295E70197F1F700C0000080E33C
:1000F000C6DF8FE097E20197F1F700C00000B8DF9C
:100100008FEC97E00197F1F700C00000B1DF8FECB2
:1001100097E00197F1F700C0000080E2B0DF8FE0C8
:1001200097E20197F1F700C0000088E2BEDF8CE0A3
:10013000BCDF86E0BADFC6CF82E0B7DF8FE99FE0A1
:100140000197F1F700C000000895623059F018F4EB
:10015000613031F00895633039F0643039F008953A
:10016000805805C0805403C0805701C080539DCF84
:10017000CF93DF93EC018991882311F088DFFBCFC7
:10018000DF91CF910895EF92FF920F931F93CF933A
:10019000DF9300D0CDB7DEB728E0829FC0011124E5
:1001A000806469837A8381DF6981E62E7A81F72E04
:1001B0008701085F1F4FF70181917F0168DFE0161B
:1001C000F106C9F70F900F90DF91CF911F910F911A
:1001D000FF90EF90089537DF80917800909179003B
:1001E000843521E0920718F42B9A29982A989C01CB
:1001F000245531402435314018F42A9A2B982998F7
:10020000885A92408835914038F7299A2A982B9835
:06021000E3CFF894FFCFDC
:00000001FF
