:1000000019C020C01FC01EC01DC01CC01BC01AC00C
:1000100019C018C017C016C015C014C013C012C034
:1000200011C010C00FC00EC00DC00CC00BC00AC064
:1000300009C008C011241FBECFEFD4E0DEBFCDBF82
:1000400007D03EC0DDCF2098289A219A229A0895A1
:10005000CF93DF931F92CDB7DEB71982F4DF1899E3
:100060000BC021E22A95F1F70000189BFECF998181
:1000700081E0911180E0898389818130F1F485E00C
:1000800090E025B1266025B93FE946E821E03150EE
:1000900040402040E1F700C0000025B1297F25B98C
:1000A0003FE946E821E0315040402040E1F700C000
:1000B0000000019731F71982D2CF29982A98CFCF23
:0400C000F894FFCFE2
:00000001FF
