:1000000019C020C01FC01EC01DC01CC01BC01AC00C
:1000100019C018C017C044C015C036C013C012C0E4
:1000200011C010C00FC00EC00DC00CC00BC00AC064
:1000300009C008C011241FBECFEFD4E0DEBFCDBF82
:100040003BD06EC0DDCF529853985A9A5B9A38983D
:100050004098209A219A229A239AE1E8F0E0808140
:100060008260808384E795E790938900809388007D
:100070000895882341F0E3E2F4EF3197F1F700C0EF
:1000800000008150F6CF08951F920F920FB60F9285
:1000900011242B982A9A0F900FBE0F901F9018953D
:1000A0001F920F920FB60F9211242B9A2A980F903D
:1000B0000FBE0F901F901895CF93DF931F92CDB76F
:1000C000DEB7C1DF198278944A990BC081E28A9524
:1000D000F1F700004A9BFECF998181E0911180E009
:1000E00089838981813059F480916F008260809387
:1000F0006F0080916F00816080936F00E5CF8091E9
:100100006F008D7F80936F0080916F008E7F809352
:100110006F002B982A981092850010928400D4CFFB
:04012000F894FFCF81
:00000001FF
