:1000000019C020C01FC043C04DC01CC01BC01AC0B7
:1000100019C018C017C016C015C014C013C012C034
:1000200011C010C00FC00EC00DC00CC00BC00AC064
:1000300009C008C011241FBECFEFD4E0DEBFCDBF82
:100040003CD044C0DDCF229838982A9A409A209A12
:10005000219AE8E6F0E0808183608083EBE6F0E0BF
:10006000808184608083ECE6F0E080818160808321
:100070000895882359F02FE73AE196E02150304067
:100080009040E1F700C000008150F3CF08951F9227
:100090000F920FB60F921124289A0F900FBE0F9057
:1000A0001F9018951F920F920FB60F921124289847
:1000B0000F900FBE0F901F901895C5DF7894C2E087
:1000C00085B18C2785B981E0D4DFFACFF894FFCFD2
:00000001FF
