:1000000019C033C032C031C030C02FC02EC02DC087
:100010002CC02BC02AC029C028C027C026C025C09C
:1000200024C023C022C021C020C01FC01EC01DC0CC
:100030001CC01BC011241FBECFEFD4E0DEBFCDBF5C
:1000400011E0A0E0B1E0E6E7FBE002C005900D9210
:10005000AC35B107D9F721E0ACE5B1E001C01D92A4
:10006000A336B207E1F747D284C5CACF982F92953D
:100070009F708F702AE0929F800D112408956AE08E
:100080007FD2292F30E1839FC0011124822B089554
:10009000FF920F931F93CF93DF93CDB7DEB7609797
:1000A0000FB6F894DEBF0FBECDBF809160011F92E6
:1000B0008F9380915D011F928F9380915E011F92BB
:1000C0008F9380915F011F928F9380E191E09F93C6
:1000D0008F931F9290E1F92EFF928E010F5F1F4FB9
:1000E0001F930F9360D221D1C80175D1E0916201B5
:1000F0008FEF8E0F0FB6F894DEBF0FBECDBF8830E6
:1001000000F5F0E0EE0FFF1FE250FF4F81818F936B
:1001100080818F9380915C011F928F938091610108
:100120001F928F9387E291E09F938F931F92FF928C
:100130001F930F9338D20FB6F894DEBF0FBECDBF1A
:1001400004C065E371E0C80127D262E080E030D1ED
:10015000C80141D160960FB6F894DEBF0FBECDBF87
:10016000DF91CF911F910F91FF900895CF93DF936F
:10017000D82FC62F80ED8ED1811107C08D2F8CD145
:100180008C2F8AD1DF91CF91AEC1DF91CF910895AD
:10019000CF93C82F80ED7ED1811109C08C2F7CD1E7
:1001A00080ED8BD196D1C82F9ED18C2F01C080E0DD
:1001B000CF910895CF93C82F80E0EADF682FCC233A
:1001C00011F06F7701C0606880E0CF91CFCFCF93FF
:1001D000DF9380E0DDDFD82F80ED5CD1C82F811167
:1001E00025C080E059D180915D01D7FF03C047DF72
:1001F000806802C044DF8F774FD180915E013FDF7E
:100200004BD180915F013BDF47D18091620144D1A6
:100210008091610134DF40D180915C0130DF3CD1BD
:10022000809160012CDF38D15ED101C0C1E08C2FFC
:10023000DF91CF910895CF9380ED2CD1C82F8111FC
:1002400029C080E029D180ED38D139D18F770EDFF8
:1002500080935D0134D18F7709DF80935E012FD1C8
:100260008F7704DF80935F012AD18F77FFDE809341
:10027000620125D18F77FADE8093610120D18F77DB
:10028000F5DE80935C0125D18F77F0DE80936001ED
:100290002AD101C0C1E08C2FCF9108958DE28093C7
:1002A0005D018BE380935E0187E180935F018FE1C5
:1002B000809361018CE080935C0181E18093600117
:1002C00087E08093620183CF20982198289A299A09
:1002D000389A409808955B9A85E38A95F1F7000073
:1002E0005B9808959BB19F709BB99BB1807F982BC1
:1002F0009BB9F1CFCF93C82F5A9AF4DF8C2F8295F8
:10030000807FF0DF8AE78A95F1F700C0CF910895EA
:10031000CF93C82F5A98E6DF8C2F8295807FE2DF3B
:1003200080E78A95F1F7CF91089581E0F1DF8FE9B9
:100330009FE00197F1F700C0000008958AB18C6F2B
:100340008AB98BB183708BB98FE295E70197F1F78A
:1003500000C0000080E3C6DF8FE097E20197F1F76D
:1003600000C00000B8DF8FEC97E00197F1F700C004
:100370000000B1DF8FEC97E00197F1F700C00000BB
:1003800080E2B0DF8FE097E20197F1F700C0000054
:1003900088E2BEDF8CE0BCDF86E0BADFC6CF82E059
:1003A000B7DF8FE99FE00197F1F700C000000895E3
:1003B000623059F018F4613031F00895633039F04B
:1003C000643039F00895805805C0805403C08057C8
:1003D00001C080539DCFCF93DF93EC018991882397
:1003E00011F088DFFBCFDF91CF9108950F931F931A
:1003F000CF93DF938B0128E0829FC001112480649A
:1004000087DFE801085F1F4F899174DFC017D107AC
:10041000D9F7DF91CF911F910F91089594EA9093AE
:10042000BC009091BC0097FFFCCF9091B900987FE1
:10043000983029F09091B900987F9031A9F4809379
:10044000BB0084E88093BC008091BC0087FFFCCF98
:100450008091B900887F883149F08091B900887F08
:10046000803421F082E0089581E0089580E00895CD
:100470006B3008F46BE03D983C98882319F0459A5E
:10048000449A02C0459844986093B80081E08093F4
:10049000B90008958E7FC2CF8093BB0084E880931B
:1004A000BC008091BC0087FFFCCF9091B900987F81
:1004B00081E0983209F480E008958160AFCF84EC48
:1004C0008093BC008091BC0087FFFCCF8091BB0073
:1004D000089584E88093BC008091BC0087FFFCCF26
:1004E0008091BB00089584E98093BC008091BC009A
:1004F00084FDFCCF0895E8DE21DF6AE081E0B8DF0B
:1005000081E058DEC1E0D1E02FEF80E792E021509A
:1005100080409040E1F700C000008DDEB9DD189901
:1005200017C0CD278C2F46DE2FE788E391E02150BE
:1005300080409040E1F700C00000189BFECF2FE7FD
:1005400088E391E0215080409040E1F700C0000036
:100550001999DACFA3DE2FE788E391E0215080409C
:100560009040E1F700C00000189BFECF2FE788E322
:1005700091E0215080409040E1F700C00000C4CFDE
:10058000991B79E004C0991F961708F0961B881FE5
:100590007A95C9F780950895FB01DC0101900D92D1
:1005A0000020E1F70895AEE0B0E0E8EDF2E0B8C277
:1005B0000D891E898F89988D26E02C831A830983E3
:1005C00097FF02C080E090E801979E838D83AE0183
:1005D000455E5F4F698D7A8DCE01019611D04D81B8
:1005E0005E8157FD0AC02F813885421753070CF4EE
:1005F0009A01F801E20FF31F10822E96E4E0ACC2DC
:10060000ABE0B0E0E5E0F3E07DC26C017B018A0184
:10061000FC0117821682838181FFBFC1CE01019642
:100620003C01F6019381F70193FD859193FF819140
:100630007F01882309F4ADC1853239F493FD85919A
:1006400093FF81917F01853221F4B60190E0C0D102
:10065000E8CF912C212C312CFFE1F315D8F08B320F
:1006600079F038F4803279F08332A1F4232D2061BF
:100670001DC08D3261F0803369F4232D216016C0D6
:10068000832D8260382EE32DE4603E2E2AC0F32DA8
:10069000F8601DC037FC2DC020ED280F2A3040F037
:1006A0008E32B9F436FC75C1232D2064322E19C068
:1006B00036FE06C08AE0989E200D1124922E11C0AD
:1006C000EAE02E9E200D1124222EF32DF0623F2E03
:1006D00008C08C3621F4832D8068382E02C08836FD
:1006E00041F4F70193FD859193FF81917F01811181
:1006F000B3CF982F9F7D9554933028F40C5F1F4FF4
:100700009FE399830DC0833631F0833771F08335D1
:1007100009F055C020C0F801808189830E5F1F4F0A
:1007200088248394912C530112C02801F2E04F0ECB
:10073000511CF801A080B18036FE03C0692D70E025
:1007400002C06FEF7FEFC50138D14C018201F32D5C
:10075000FF773F2E15C0280122E0420E511CF80100
:10076000A080B18036FE03C0692D70E002C06FEF3B
:100770007FEFC50117D14C01F32DF0683F2E8201A8
:1007800033FC19C0822D90E088169906A0F4B601BA
:1007900080E290E01DD12A94F5CFF50137FC8591D8
:1007A00037FE81915F01B60190E012D121102A94A9
:1007B00021E0821A91088114910479F7E1C084360E
:1007C00011F0893639F5F80137FE07C06081718173
:1007D000828193810C5F1F4F08C060817181072E59
:1007E000000C880B990B0E5F1F4FF32DFF763F2EE9
:1007F00097FF09C090958095709561957F4F8F4FB9
:100800009F4FF0683F2E2AE030E0A3011DD1882ED3
:10081000861844C0853731F4232D2F7EB22E2AE06E
:1008200030E025C0932D997FB92E8F36C1F018F492
:10083000883579F0AEC0803719F0883721F0A9C02B
:10084000E92FE061BE2EB4FE0DC0FB2DF460BF2E7B
:1008500009C034FE0AC0292F2660B22E06C028E047
:1008600030E005C020E130E002C020E132E0F801D4
:10087000B7FE07C060817181828193810C5F1F4F39
:1008800006C06081718180E090E00E5F1F4FA30180
:10089000DBD0882E8618FB2DFF773F2E36FE0DC04D
:1008A000232D2E7FA22E891458F434FE0BC032FC67
:1008B00009C0832D8E7EA82E05C0B82CA32C03C0A2
:1008C000B82C01C0B92CA4FE0FC0FE01E80DF11D2B
:1008D0008081803321F49A2D997EA92E09C0A2FE31
:1008E00006C0B394B39404C08A2D867809F0B394FB
:1008F000A3FC10C0A0FE06C0B21480F4280C922CF9
:100900009B180DC0B21458F4B60180E290E060D09C
:10091000B394F8CFB21418F42B1802C0982C212CE1
:10092000A4FE0FC0B60180E390E052D0A2FE16C034
:10093000A1FC03C088E790E002C088E590E0B60122
:100940000CC08A2D867851F0A1FE02C08BE201C056
:1009500080E2A7FC8DE2B60190E03AD0891430F431
:10096000B60180E390E034D09A94F8CF8A94F301F2
:10097000E80DF11D8081B60190E02AD08110F6CFFC
:10098000222009F44ECEB60180E290E021D02A94D4
:10099000F7CFF6018681978102C08FEF9FEF2B96EC
:1009A000E2E1CCC0FC010590615070400110D8F725
:1009B000809590958E0F9F1F0895FC0161507040A7
:1009C00001900110D8F7809590958E0F9F1F089584
:1009D0000F931F93CF93DF93FB01238121FD03C06E
:1009E0008FEF9FEF2CC022FF16C0468157812481D4
:1009F00035814217530744F4A081B1819D012F5FD7
:100A00003F4F318320838C93268137812F5F3F4F67
:100A10003783268314C08B01EC01FB010084F18530
:100A2000E02D0995892BE1F6D80116968D919C91C0
:100A30001797019617969C938E931697CE01DF9188
:100A4000CF911F910F910895FA01AA27283051F1F3
:100A5000203181F1E8946F936E7F6E5F7F4F8F4FEF
:100A60009F4FAF4FB1E03ED0B4E03CD0670F781F4E
:100A7000891F9A1FA11D680F791F8A1F911DA11D33
:100A80006A0F711D811D911DA11D20D009F468946C
:100A90003F912AE0269F11243019305D3193DEF614
:100AA000CF010895462F4770405D4193B3E00FD0CA
:100AB000C9F7F6CF462F4F70405D4A3318F0495DB5
:100AC00031FD4052419302D0A9F7EACFB4E0A69598
:100AD0009795879577956795BA95C9F700976105BA
:100AE000710508959B01AC010A2E06945795479510
:100AF00037952795BA95C9F7620F731F841F951F05
:100B0000A01D08952F923F924F925F926F927F9215
:100B10008F929F92AF92BF92CF92DF92EF92FF920D
:100B20000F931F93CF93DF93CDB7DEB7CA1BDB0BB9
:100B30000FB6F894DEBF0FBECDBF09942A8839885E
:100B400048885F846E847D848C849B84AA84B98465
:100B5000C884DF80EE80FD800C811B81AA81B98171
:100B6000CE0FD11D0FB6F894DEBF0FBECDBFED0185
:060B70000895F894FFCF88
:100B76003B013F01430147014B014F01530157011F
:100B8600253032643A253032643A253032642020EA
:100B960032302530326400253032642E25303264FE
:100BA60020202573004572726F72004D6F6E0054DF
:100BB6007565005765640054687500467269005390
:0C0BC60061740053756E004572720000EF
:00000001FF
