:100000002BC03DC03CC03BC03AC039C038C037C02F
:1000100036C035C034C033C032C031C030C02FC04C
:100020002EC02DC02CC02BC02AC029C028C027C07C
:1000300026C025C055C056C05BC061C062C066C046
:1000400068C06EC073C09BC09CC0A1C0A7C0A8C040
:10005000ACC0AEC0B4C0B9C011241FBECFEFD4E055
:10006000DEBFCDBF11E0A0E0B1E0E8E9F2E002C000
:1000700005900D92A230B107D9F7BFD00BC1C0CF08
:1000800087B1847087B987B1887087B9429A439ADB
:10009000579A569A559A249A259A389A399A549A80
:1000A000539A529A209A219A229A239A0895E82FD5
:1000B000809101018E1709F448C0E09301012C984A
:1000C0002D98409841985D985E985F988E2F90E0AB
:1000D000FC013197E930F10588F5E65EFF4F0994A0
:1000E0005F9818C05F9A5E9A5D982C9A2D9A05C009
:1000F0005F9A5E9A5D9A2C9A2D9840981DC05F98E1
:1001000016C05F9A5E985D9A2C9A14C05F9A5E98AA
:1001100009C05F9A5E9A5D9A2C982D98409814C0F9
:100120005F9A5E9A5D9A2C9A2D9A05C05F9A5E9AA4
:100130005D9A2C982D98409A419A08955F9A5E9AFC
:100140005D9A2C9A2D9A409A41980895E82F8091B3
:1001500000018E1709F448C0E09300015C985B9899
:100160005A98289829982A982B988E2F90E0FC016D
:100170003197E930F10588F5ED5DFF4F09945C9802
:1001800018C05C9A5B9A5A98289A299A05C05C9A7A
:100190005B9A5A9A289A29982A981DC05C9816C08A
:1001A0005C9A5B985A9A289A14C05C9A5B9809C02A
:1001B0005C9A5B9A5A9A289829982A9814C05C9A53
:1001C0005B9A5A9A289A299A05C05C9A5B9A5A9A1D
:1001D000289829982A9A2B9A08955C9A5B9A5A9A99
:1001E000289A299A2A9A2B980895CF936AE046D0A4
:1001F000C92F5DDF8C2FCF91A9CF42DFC0E08C2FBC
:10020000F4DF8FE39CE90197F1F700C00000329B17
:1002100002C03399F4CF8FE39CE90197F1F700C056
:10022000000032990FC033990DC080E0DEDF329BB1
:10023000FECF339BFCCF8FE39CE90197F1F700C021
:100240000000DCCF32990CC0C33610F4CF5F01C080
:10025000C0E08C2FCADF3299D2CF3399FCCFCFCFF9
:100260003399CDCFCC2311F0C15001C0C3E68C2F00
:10027000BCDF3399C4CF3299FCCFC1CF991B79E051
:1002800004C0991F961708F0961B881F7A95C9F726
:0802900080950895F894FFCF5A
:0202980064649C
:00000001FF
