:1000000019C054C05EC01EC01DC01CC01BC01AC099
:1000100019C018C017C06BC015C05EC013C012C095
:1000200011C010C00FC00EC00DC00CC00BC00AC064
:1000300009C008C011241FBECFEFD4E0DEBFCDBF82
:1000400061D069C0DDCF529853985A9A5B9A38981C
:100050004098209A219A229A8DB383608DBBE9E65D
:10006000F0E080818A608083E1E8F0E08081846054
:100070008083EFE6F0E08081816080838081826010
:10008000808388EE93E090938900809388000895A0
:10009000882359F02FE73AE196E021503040904014
:1000A000E1F700C000008150F3CF08951F920F9236
:1000B0000FB60F921124289A0F900FBE0F901F9029
:1000C00018951F920F920FB60F92112428980F9037
:1000D0000FBE0F901F9018951F920F920FB60F92A0
:1000E00011242A9A0F900FBE0F901F9018951F92FF
:1000F0000F920FB60F9211242A980F900FBE0F90F7
:100100001F901895A0DF7894C2E085B18C2785B93F
:0A01100082E0BEDFFACFF894FFCFC3
:00000001FF
