:1000000019C033C032C031C030C02FC02EC02DC087
:100010002CC02BC02AC029C028C027C026C025C09C
:1000200024C023C022C021C020C01FC01EC01DC0CC
:100030001CC01BC011241FBECFEFD4E0DEBFCDBF5C
:1000400011E0A0E0B1E0EEEEFAE002C005900D9202
:10005000A234B107D9F721E0A2E4B1E001C01D92BA
:10006000A334B207E1F73BD240C5CACFEF92FF926B
:100070000F931F93CF93DF93CDB7DEB7A4970FB63F
:10008000F894DEBF0FBECDBF9F938F9381E091E0C8
:100090009F938F931F9210E11F937E0182E1E80EE0
:1000A000F11CFF92EF926BA37CA339D27CA17F93CA
:1000B0006BA16F938AE091E09F938F931F921F93A0
:1000C0008E010F5F1F4F1F930F9329D222D1C701BB
:1000D00076D162E080E060D1C80171D10FB6F894AA
:1000E000DEBF0FBECDBFA4960FB6F894DEBF0FBE25
:1000F000CDBFDF91CF911F910F91FF90EF900895A9
:1001000008D185E191E05BD162E080E045D181E2F8
:1001100091E055D18FE39CE90197F1F700C0000011
:10012000189BFECF9FE72AE186E091502040804057
:10013000E1F700C000009FE72AE186E091502040EF
:100140008040E1F700C000009FE72AE186E091507F
:1001500020408040E1F700C000009FE72AE186E0F0
:10016000915020408040E1F700C000009FE72AE165
:1001700086E0915020408040E1F700C000009FE7FA
:100180002AE186E0915020408040E1F700C0000065
:100190000895BFD08BE291E012D162E080E0FCD004
:1001A00086E391E00CD18FE39CE90197F1F700C061
:1001B0000000199BFECF9FE72AE186E09150204086
:1001C0008040E1F700C000009FE72AE186E09150FF
:1001D00020408040E1F700C000009FE72AE186E070
:1001E000915020408040E1F700C000009FE72AE1E5
:1001F00086E0915020408040E1F700C000009FE77A
:100200002AE186E0915020408040E1F700C00000E4
:100210009FE72AE186E0915020408040E1F700C04E
:10022000000008951F93CF93DF931F92CDB7DEB7E1
:100230008091000123D18091420122D1809100015F
:1002400030D131D1182F39D1898341D1A2DF212F6B
:1002500030E0322F22278981A901480F511DCA01A0
:100260000F90DF91CF911F9108951F93CF93DF934C
:100270001F92CDB7DEB7182F809100019983FED071
:1002800080914201FDD09981892FFAD0812FF8D039
:100290001ED10F90DF91CF911F9132CF20982198DE
:1002A000289A299A3898409880E480937C00EAE75D
:1002B000F0E086E080838081806E808308955B9A81
:1002C00085E38A95F1F700005B9808959BB19F70D4
:1002D0009BB99BB1807F982B9BB9F1CFCF93C82F4F
:1002E0005A9AF4DF8C2F8295807FF0DF8AE78A9517
:1002F000F1F700C0CF910895CF93C82F5A98E6DF49
:100300008C2F8295807FE2DF80E78A95F1F7CF918D
:10031000089581E0F1DF8FE99FE00197F1F700C0D8
:10032000000008958AB18C6F8AB98BB183708BB944
:100330008FE295E70197F1F700C0000080E3C6DF88
:100340008FE097E20197F1F700C00000B8DF8FEC73
:1003500097E00197F1F700C00000B1DF8FEC97E064
:100360000197F1F700C0000080E2B0DF8FE097E274
:100370000197F1F700C0000088E2BEDF8CE0BCDF2F
:1003800086E0BADFC6CF82E0B7DF8FE99FE0019752
:10039000F1F700C000000895623059F018F46130A0
:1003A00031F00895633039F0643039F008958058A1
:1003B00005C0805403C0805701C080539DCFCF93A8
:1003C000DF93EC018991882311F088DFFBCFDF9167
:1003D000CF9108950F931F93CF93DF938B0128E064
:1003E000829FC0011124806487DFE801085F1F4FEE
:1003F000899174DFC017D107D9F7DF91CF911F9191
:100400000F91089594EA9093BC009091BC0097FFDF
:10041000FCCF9091B900987F983029F09091B90065
:10042000987F9031A9F48093BB0084E88093BC004E
:100430008091BC0087FFFCCF8091B900887F883114
:1004400049F08091B900887F803421F082E00895DE
:1004500081E0089580E008956B3008F46BE03D98EA
:100460003C98882319F0459A449A02C045984498CC
:100470006093B80081E08093B90008958E7FC2CF69
:100480008093BB0084E88093BC008091BC0087FF10
:10049000FCCF9091B900987F81E0983209F480E018
:1004A00008958160AFCF84EC8093BC008091BC0044
:1004B00087FFFCCF8091BB00089584E88093BC0047
:1004C0008091BC0087FFFCCF8091BB00089584ED34
:1004D0008093BC008091BC0084FDFCCF0895DEDEDB
:1004E00021DF6AE081E0B8DFC0E0D0E02FEF80E7F5
:1004F00092E0215080409040E1F700C00000009160
:10050000780010917900BE01C801B0DD189902C0D1
:10051000C801ABDE1999EACF85DEEC01E7CFAEE08A
:10052000B0E0E4E9F2E0B8C20D891E898F89988DA8
:1005300026E02C831A83098397FF02C080E090E8AD
:1005400001979E838D83AE01455E5F4F698D7A8DE5
:10055000CE01019611D04D815E8157FD0AC02F81D9
:100560003885421753070CF49A01F801E20FF31F84
:1005700010822E96E4E0ACC2ABE0B0E0E1ECF2E039
:100580007DC26C017B018A01FC0117821682838186
:1005900081FFBFC1CE0101963C01F6019381F701B5
:1005A00093FD859193FF81917F01882309F4ADC16B
:1005B000853239F493FD859193FF81917F018532D6
:1005C00021F4B60190E0C0D1E8CF912C212C312C40
:1005D000FFE1F315D8F08B3279F038F4803279F0FE
:1005E0008332A1F4232D20611DC08D3261F0803350
:1005F00069F4232D216016C0832D8260382EE32DEF
:10060000E4603E2E2AC0F32DF8601DC037FC2DC0DB
:1006100020ED280F2A3040F08E32B9F436FC75C137
:10062000232D2064322E19C036FE06C08AE0989E23
:10063000200D1124922E11C0EAE02E9E200D1124CF
:10064000222EF32DF0623F2E08C08C3621F4832D2C
:100650008068382E02C0883641F4F70193FD8591F9
:1006600093FF81917F018111B3CF982F9F7D955486
:10067000933028F40C5F1F4F9FE399830DC083369E
:1006800031F0833771F0833509F055C020C0F8018F
:10069000808189830E5F1F4F88248394912C53019E
:1006A00012C02801F2E04F0E511CF801A080B18069
:1006B00036FE03C0692D70E002C06FEF7FEFC50109
:1006C00038D14C018201F32DFF773F2E15C0280150
:1006D00022E0420E511CF801A080B18036FE03C01A
:1006E000692D70E002C06FEF7FEFC50117D14C019B
:1006F000F32DF0683F2E820133FC19C0822D90E06B
:1007000088169906A0F4B60180E290E01DD12A94E3
:10071000F5CFF50137FC859137FE81915F01B60178
:1007200090E012D121102A9421E0821A91088114BC
:10073000910479F7E1C0843611F0893639F5F80172
:1007400037FE07C060817181828193810C5F1F4FEA
:1007500008C060817181072E000C880B990B0E5F19
:100760001F4FF32DFF763F2E97FF09C09095809580
:10077000709561957F4F8F4F9F4FF0683F2E2AE015
:1007800030E0A3011DD1882E861844C0853731F48E
:10079000232D2F7EB22E2AE030E025C0932D997FA5
:1007A000B92E8F36C1F018F4883579F0AEC0803795
:1007B00019F0883721F0A9C0E92FE061BE2EB4FE00
:1007C0000DC0FB2DF460BF2E09C034FE0AC0292FD6
:1007D0002660B22E06C028E030E005C020E130E0FF
:1007E00002C020E132E0F801B7FE07C060817181EC
:1007F000828193810C5F1F4F06C06081718180E010
:1008000090E00E5F1F4FA301DBD0882E8618FB2DD2
:10081000FF773F2E36FE0DC0232D2E7FA22E89148A
:1008200058F434FE0BC032FC09C0832D8E7EA82EF6
:1008300005C0B82CA32C03C0B82C01C0B92CA4FE51
:100840000FC0FE01E80DF11D8081803321F49A2D47
:10085000997EA92E09C0A2FE06C0B394B39404C029
:100860008A2D867809F0B394A3FC10C0A0FE06C0C0
:10087000B21480F4280C922C9B180DC0B21458F4BA
:10088000B60180E290E060D0B394F8CFB21418F4CF
:100890002B1802C0982C212CA4FE0FC0B60180E3B7
:1008A00090E052D0A2FE16C0A1FC03C088E790E001
:1008B00002C088E590E0B6010CC08A2D867851F020
:1008C000A1FE02C08BE201C080E2A7FC8DE2B6016E
:1008D00090E03AD0891430F4B60180E390E034D04F
:1008E0009A94F8CF8A94F301E80DF11D8081B60146
:1008F00090E02AD08110F6CF222009F44ECEB60126
:1009000080E290E021D02A94F7CFF601868197818A
:1009100002C08FEF9FEF2B96E2E1CCC0FC01059067
:10092000615070400110D8F7809590958E0F9F1FF1
:100930000895FC016150704001900110D8F7809536
:1009400090958E0F9F1F08950F931F93CF93DF9362
:10095000FB01238121FD03C08FEF9FEF2CC022FFFD
:1009600016C046815781248135814217530744F4CC
:10097000A081B1819D012F5F3F4F318320838C93F4
:10098000268137812F5F3F4F3783268314C08B0129
:10099000EC01FB010084F185E02D0995892BE1F63E
:1009A000D80116968D919C911797019617969C9356
:1009B0008E931697CE01DF91CF911F910F910895DD
:1009C000FA01AA27283051F1203181F1E8946F9380
:1009D0006E7F6E5F7F4F8F4F9F4FAF4FB1E03ED026
:1009E000B4E03CD0670F781F891F9A1FA11D680FC4
:1009F000791F8A1F911DA11D6A0F711D811D911DF7
:100A0000A11D20D009F468943F912AE0269F11246B
:100A10003019305D3193DEF6CF010895462F4770CF
:100A2000405D4193B3E00FD0C9F7F6CF462F4F702A
:100A3000405D4A3318F0495D31FD4052419302D088
:100A4000A9F7EACFB4E0A69597958795779567952E
:100A5000BA95C9F700976105710508959B01AC012E
:100A60000A2E06945795479537952795BA95C9F755
:100A7000620F731F841F951FA01D08952F923F9230
:100A80004F925F926F927F928F929F92AF92BF929E
:100A9000CF92DF92EF92FF920F931F93CF93DF934A
:100AA000CDB7DEB7CA1BDB0B0FB6F894DEBF0FBEA7
:100AB000CDBF09942A88398848885F846E847D84F4
:100AC0008C849B84AA84B984C884DF80EE80FD80F6
:100AD0000C811B81AA81B981CE0FD11D0FB6F8946C
:0E0AE000DEBF0FBECDBFED010895F894FFCF2D
:100AEE00A0506F74693A202569004D656D6F72795B
:100AFE003A2025690056616C7565207361766564D0
:100B0E0000746F206D656D6F72790056616C75653E
:100B1E00206C6F61640066726F6D206D656D6F7213
:020B2E0079004C
:00000001FF
