:1000000019C020C01FC01EC01DC01CC01BC01AC00C
:1000100019C018C017C016C015C014C013C012C034
:1000200011C010C00FC00EC00DC00CC00BC00AC064
:1000300009C008C011241FBECFEFD4E0DEBFCDBF82
:1000400006D020C0DDCF2098289A529A0895CF93E9
:10005000DF931F92CDB7DEB71982F5DF18990BC079
:1000600082E48A95F1F700C0189BFECF998181E068
:10007000911180E089838981882311F05A9AEECF0B
:080080005A98ECCFF894FFCF71
:00000001FF
