:1000000019C033C032C031C030C02FC02EC02DC087
:100010002CC02BC02AC029C028C027C026C025C09C
:1000200024C023C022C021C020C01FC01EC01DC0CC
:100030001CC01BC011241FBECFEFD4E0DEBFCDBF5C
:1000400011E0A0E0B1E0EEE1F2E102C005900D9216
:10005000AC3CB107D9F721E0ACECB1E001C01D9296
:10006000A33DB207E1F785D5D8C8CACF982F92959E
:100070009F708F702AE0929F800D112408956AE08E
:10008000C6D5292F30E1839FC0011124822B08950A
:10009000CF92DF92FF920F931F93CF93DF93CDB751
:1000A000DEB760970FB6F894DEBF0FBECDBF6C0110
:1000B0008091D0011F928F938091CD011F928F93D9
:1000C0008091CE011F928F938091CF011F928F93C9
:1000D00088E291E09F938F931F9280E1F82EFF9228
:1000E0008E010F5F1F4F1F930F93B1D55CD4C801D2
:1000F000B0D4C6016AE070E096D59F938F937F934A
:100100006F938091CC011F928F938091D1011F92A8
:100110008F938FE391E09F938F931F92FF921F9392
:100120000F9395D562E080E081D4C80192D40FB6D8
:10013000F894DEBF0FBECDBF60960FB6F894DEBF59
:100140000FBECDBFDF91CF911F910F91FF90DF9038
:10015000CF900895CF93DF93D82FC62F81EDD8D4B9
:10016000811107C08D2FD6D48C2FD4D4DF91CF919D
:10017000F8C4DF91CF910895CF93C82F81EDC8D4F3
:10018000811109C08C2FC6D481EDD5D4E0D4C82FFD
:10019000E8D48C2F01C080E0CF910895CF93C82F71
:1001A00080E0EADF682FCC2311F06F7701C0606830
:1001B00080E0CF91CFCFCF93DF9380E0DDDFD82FEA
:1001C00081EDA6D4C82F811126C080E0A3D48091F0
:1001D000CD01D7FF03C053DF806802C050DF8F77A7
:1001E00099D48091CE014BDF95D48091CF0147DF28
:1001F00091D48091D20143DF8DD48091D1013FDF32
:1002000089D48091CC013BDF85D48091D00137DF48
:1002100081D4A7D401C0C1E08C2FDF91CF91089584
:10022000CF9381ED75D4C82F811128C080E072D49E
:1002300081ED81D482D48F7719DF8093CD017DD475
:100240008F7714DF8093CE0178D48F770FDF809380
:10025000CF0173D48F730ADF8093D2016ED48F7075
:1002600005DF8093D10169D48F7100DF8093CC01C9
:100270006ED4FCDE8093D00174D401C0C1E08C2F19
:10028000CF910895CF93DF93CDB7DEB768970FB6C0
:10029000F894DEBF0FBECDBF88E1E0E1F1E0DE0102
:1002A000119601900D928A95E1F71092CD018091FF
:1002B000CE018F5F8C3308F447C01092CE0180913D
:1002C000CF018F5F883118F48093CF013FC0109227
:1002D000CF018091D10131E0380F3093D1012091CD
:1002E000D001222341F0822F837051F4822F64E6E3
:1002F0008ED4992329F08DE190E09C838B8304C0F8
:100300008CE190E09E838D834091CC01832F90E01F
:10031000FE013196E40FF11DE40FF11D6081718142
:100320006817790730F481E08093D1014F5F4093E3
:10033000CC018091CC018C3048F081E08093CC01DD
:100340002F5F2093D00102C08093CE0168960FB634
:10035000F894DEBF0FBECDBFDF91CF910895CF934C
:10036000C82F80EAD5D38C2FD5D380EAE4D3EFD33E
:10037000C82FF7D38C2FCF910895CF93DF93C82F39
:1003800080EAC6D38C2FC6D380EAD5D3D6D3C82F64
:10039000DED3D82FE6D38C2F90E0982F88278D0FAF
:1003A000911DDF91CF910895CF93DF93C82FD62F62
:1003B00080EAAED38D2FAED38C2FACD3D2D38FE1C6
:1003C0009EE40197F1F700C00000DF91CF910895FE
:1003D0001F93CF93DF93EC01162F80EA99D3812FDF
:1003E00099D38D2F97D38C2F95D3BBD38FE19EE4D8
:1003F0000197F1F700C00000DF91CF911F910895A0
:1004000020E830E080E090E0DC0140917A00406C30
:1004100040937A0040917A0046FDFCCF40917800ED
:1004200050917900840F951FA11DB11D21503109F4
:1004300061F727E0B695A795979587952A95D1F707
:1004400084569109A109B109089581E38093CD01F2
:100450008BE38093CE0187E18093CF0186E0809388
:10046000D2018093D1018CE08093CC0182E1809312
:10047000D001A1CEEF92FF920F931F93CF93DF9302
:10048000CDB7DEB760970FB6F894DEBF0FBECDBF15
:100490007C01162F072F87D262E080E0C7D282E569
:1004A00091E0D7D2C7016AE070E0BDD39F938F93EC
:1004B0007F936F930F931F9381E691E09F938F93A8
:1004C0001F9280E18F938E010F5F1F4F1F930F9339
:1004D000BED361E080E0AAD2C801BBD22FE78AE197
:1004E00096E0215080409040E1F700C000002FE7E7
:1004F0008AE196E0215080409040E1F700C0000082
:100500002FE78AE196E0215080409040E1F700C05B
:1005100000002FE78AE196E0215080409040E1F70B
:1005200000C000002FE78AE196E021508040904013
:10053000E1F700C000002FE78AE196E021508040FB
:100540009040E1F700C000000FB6F894DEBF0FBE88
:10055000CDBF60960FB6F894DEBF0FBECDBFDF9162
:10056000CF911F910F91FF90EF900895EF92FF921E
:100570000F931F93CF9381E011DE52DE61E08091F3
:10058000D00112DF62E08091CC010EDF63E0809148
:10059000D1010ADF64E08091CF0106DF65E0809140
:1005A000CE0102DFC6E001E010E060E08C2FFCDE4F
:1005B00027DF7C016C2F0CDFB801C7015BDF80EF08
:1005C00090E018990EC019990CC0189907C08FE3D4
:1005D0009CE90197F1F700C00000F7CF199BF7CF16
:1005E00010C02FE73AE146E0215030404040E1F7AB
:1005F00000C00000019729F70F5F1F4FCE5FCE3F6D
:10060000A1F6CF911F910F91FF90EF900895AF92B7
:10061000BF92DF92EF92FF920F931F93CF93DF93DE
:10062000CDB7DEB760970FB6F894DEBF0FBECDBF73
:100630005C01E62ED72EB7D162E080E0F7D1809141
:10064000D0011F928F938091CD011F928F93809143
:10065000CE011F928F938091CF011F928F9388E2DA
:1006600091E09F938F931F9280E1F82EFF928E016D
:100670000F5F1F4F1F930F93EAD2C801EAD1C50144
:100680006AE070E0D0D29F938F937F936F93DF9255
:10069000EF9281E691E09F938F931F92FF921F93B9
:1006A0000F93D5D261E080E0C1D1C801D2D12FE74C
:1006B0008AE196E0215080409040E1F700C00000C0
:1006C0002FE78AE196E0215080409040E1F700C09A
:1006D00000002FE78AE196E0215080409040E1F74A
:1006E00000C000002FE78AE196E021508040904052
:1006F000E1F700C000002FE78AE196E0215080403A
:100700009040E1F700C000002FE78AE196E0215019
:1007100080409040E1F700C000000FB6F894DEBFC3
:100720000FBECDBF60960FB6F894DEBF0FBECDBF33
:10073000DF91CF911F910F91FF90EF90DF90BF90CD
:10074000AF900895FF920F931F93CF93DF9380E0B4
:1007500025DD80E004DE082F10E081E000DE8093DC
:10076000D00182E0FCDD8093CC0183E0F8DD809352
:10077000D10184E0F4DD8093CF0185E0F0DD80934A
:10078000CE011092CD0117DD86E0F82EC1E0D0E059
:100790000C171D0708F43EC08F2DEFDDBE0137DFBB
:1007A000189924C0199922C018990AC02FE788E324
:1007B00091E0215080409040E1F700C00000F4CF6C
:1007C000199BF4CFC6E06C2F80E0EEDDCF5FD9F748
:1007D00060E080E0E9DD2FE78AE196E0215080408B
:1007E0009040E1F700C00000CEE7D0E01999D0CFEB
:1007F00019990AC02FE788E391E02150804090408A
:10080000E1F700C00000F4CF3DDDD5DC2196F39484
:10081000F394BECFDF91CF911F910F91FF90089578
:10082000C2D061E080E002D184E791E012D162E0C1
:1008300080E0FCD081E891E00CD12FE78AE196E0DE
:10084000215080409040E1F700C000002FE78AE18E
:1008500096E0215080409040E1F700C000002FE773
:100860008AE196E0215080409040E1F700C000000E
:100870002FE78AE196E0215080409040E1F700C0E8
:1008800000002FE78AE196E0215080409040E1F798
:1008900000C000002FE78AE196E0215080409040A0
:1008A000E1F700C0000008957ED061E080E0BED096
:1008B0008FE891E0CED062E080E0B8D08CE991E0A2
:1008C000C8D02FE78AE196E0215080409040E1F7C0
:1008D00000C000002FE78AE196E021508040904060
:1008E000E1F700C000002FE78AE196E02150804048
:1008F0009040E1F700C000002FE78AE196E0215028
:1009000080409040E1F700C000002FE78AE196E0C8
:10091000215080409040E1F700C000002FE78AE1BD
:1009200096E0215080409040E1F700C0000008951B
:1009300020982198289A299A3898409880E48093A2
:100940007C00EAE7F0E086E080838081806C808331
:1009500008955B9A85E38A95F1F700005B98089506
:100960009BB19F709BB99BB1807F982B9BB9F1CFB6
:10097000CF93C82F5A9AF4DF8C2F8295807FF0DFB7
:100980008AE78A95F1F700C0CF910895CF93C82FD9
:100990005A98E6DF8C2F8295807FE2DF80E78A9588
:1009A000F1F7CF91089581E0F1DF8FE99FE00197A2
:1009B000F1F700C0000008958AB18C6F8AB98BB13D
:1009C00083708BB98FE295E70197F1F700C00000C3
:1009D00080E3C6DF8FE097E20197F1F700C00000E7
:1009E000B8DF8FEC97E00197F1F700C00000B1DFAE
:1009F0008FEC97E00197F1F700C0000080E2B0DFD4
:100A00008FE097E20197F1F700C0000088E2BEDFB7
:100A10008CE0BCDF86E0BADFC6CF82E0B7DF8FE9CB
:100A20009FE00197F1F700C000000895623059F08F
:100A300018F4613031F00895633039F0643039F0E2
:100A40000895805805C0805403C0805701C080536A
:100A50009DCFCF93DF93EC018991882311F088DF3C
:100A6000FBCFDF91CF9108950F931F93CF93DF9327
:100A70008B0128E0829FC0011124806487DFE80198
:100A8000085F1F4F899174DFC017D107D9F7DF9135
:100A9000CF911F910F91089594EA9093BC0090918B
:100AA000BC0097FFFCCF9091B900987F983029F057
:100AB0009091B900987F9031A9F48093BB0084E8AD
:100AC0008093BC008091BC0087FFFCCF8091B9006F
:100AD000887F883149F08091B900887F803421F087
:100AE00082E0089581E0089580E008956B3008F475
:100AF0006BE03D983C98882319F0459A449A02C0CF
:100B0000459844986093B80081E08093B9000895B7
:100B10008E7FC2CF8093BB0084E88093BC0080911D
:100B2000BC0087FFFCCF9091B900987F81E098329C
:100B300009F480E008958160AFCF84EC8093BC001D
:100B40008091BC0087FFFCCF8091BB00089584E8B2
:100B50008093BC008091BC0087FFFCCF8091BB00DC
:100B6000089584E98093BC008091BC0084FDFCCF93
:100B70000895DEDE21DF6AE081E0B8DF81E00EDB90
:100B800064DC10927C0088EC80937C0086E080938B
:100B90007A0080917A00806C80937A002FEF80E752
:100BA00092E0215080409040E1F700C0000028DC36
:100BB000EC0136DBCE016CDA199913C019990AC021
:100BC0002FE788E391E0215080409040E1F700C09A
:100BD0000000F4CF80E0C3DB811102C065DE01C0FC
:100BE000B1DD1899DBCF18990AC02FE788E391E0AF
:100BF000215080409040E1F700C00000F4CF80E039
:100C0000AEDB811102C0B2DCC9CF0ADEC7CF991BAF
:100C100079E004C0991F961708F0961B881F7A95F3
:100C2000C9F780950895AA1BBB1B51E107C0AA1FF5
:100C3000BB1FA617B70710F0A61BB70B881F991F7D
:100C40005A95A9F780959095BC01CD010895AEE025
:100C5000B0E0ECE2F6E0B8C20D891E898F89988D6C
:100C600026E02C831A83098397FF02C080E090E876
:100C700001979E838D83AE01455E5F4F698D7A8DAE
:100C8000CE01019611D04D815E8157FD0AC02F81A2
:100C90003885421753070CF49A01F801E20FF31F4D
:100CA00010822E96E4E0ACC2ABE0B0E0E9E5F6E0FD
:100CB0007DC26C017B018A01FC011782168283814F
:100CC00081FFBFC1CE0101963C01F6019381F7017E
:100CD00093FD859193FF81917F01882309F4ADC134
:100CE000853239F493FD859193FF81917F0185329F
:100CF00021F4B60190E0C0D1E8CF912C212C312C09
:100D0000FFE1F315D8F08B3279F038F4803279F0C6
:100D10008332A1F4232D20611DC08D3261F0803318
:100D200069F4232D216016C0832D8260382EE32DB7
:100D3000E4603E2E2AC0F32DF8601DC037FC2DC0A4
:100D400020ED280F2A3040F08E32B9F436FC75C100
:100D5000232D2064322E19C036FE06C08AE0989EEC
:100D6000200D1124922E11C0EAE02E9E200D112498
:100D7000222EF32DF0623F2E08C08C3621F4832DF5
:100D80008068382E02C0883641F4F70193FD8591C2
:100D900093FF81917F018111B3CF982F9F7D95544F
:100DA000933028F40C5F1F4F9FE399830DC0833667
:100DB00031F0833771F0833509F055C020C0F80158
:100DC000808189830E5F1F4F88248394912C530167
:100DD00012C02801F2E04F0E511CF801A080B18032
:100DE00036FE03C0692D70E002C06FEF7FEFC501D2
:100DF00038D14C018201F32DFF773F2E15C0280119
:100E000022E0420E511CF801A080B18036FE03C0E2
:100E1000692D70E002C06FEF7FEFC50117D14C0163
:100E2000F32DF0683F2E820133FC19C0822D90E033
:100E300088169906A0F4B60180E290E01DD12A94AC
:100E4000F5CFF50137FC859137FE81915F01B60141
:100E500090E012D121102A9421E0821A9108811485
:100E6000910479F7E1C0843611F0893639F5F8013B
:100E700037FE07C060817181828193810C5F1F4FB3
:100E800008C060817181072E000C880B990B0E5FE2
:100E90001F4FF32DFF763F2E97FF09C09095809549
:100EA000709561957F4F8F4F9F4FF0683F2E2AE0DE
:100EB00030E0A3011DD1882E861844C0853731F457
:100EC000232D2F7EB22E2AE030E025C0932D997F6E
:100ED000B92E8F36C1F018F4883579F0AEC080375E
:100EE00019F0883721F0A9C0E92FE061BE2EB4FEC9
:100EF0000DC0FB2DF460BF2E09C034FE0AC0292F9F
:100F00002660B22E06C028E030E005C020E130E0C7
:100F100002C020E132E0F801B7FE07C060817181B4
:100F2000828193810C5F1F4F06C06081718180E0D8
:100F300090E00E5F1F4FA301DBD0882E8618FB2D9B
:100F4000FF773F2E36FE0DC0232D2E7FA22E891453
:100F500058F434FE0BC032FC09C0832D8E7EA82EBF
:100F600005C0B82CA32C03C0B82C01C0B92CA4FE1A
:100F70000FC0FE01E80DF11D8081803321F49A2D10
:100F8000997EA92E09C0A2FE06C0B394B39404C0F2
:100F90008A2D867809F0B394A3FC10C0A0FE06C089
:100FA000B21480F4280C922C9B180DC0B21458F483
:100FB000B60180E290E060D0B394F8CFB21418F498
:100FC0002B1802C0982C212CA4FE0FC0B60180E380
:100FD00090E052D0A2FE16C0A1FC03C088E790E0CA
:100FE00002C088E590E0B6010CC08A2D867851F0E9
:100FF000A1FE02C08BE201C080E2A7FC8DE2B60137
:1010000090E03AD0891430F4B60180E390E034D017
:101010009A94F8CF8A94F301E80DF11D8081B6010E
:1010200090E02AD08110F6CF222009F44ECEB601EE
:1010300080E290E021D02A94F7CFF6018681978153
:1010400002C08FEF9FEF2B96E2E1CCC0FC01059030
:10105000615070400110D8F7809590958E0F9F1FBA
:101060000895FC016150704001900110D8F78095FF
:1010700090958E0F9F1F08950F931F93CF93DF932B
:10108000FB01238121FD03C08FEF9FEF2CC022FFC6
:1010900016C046815781248135814217530744F495
:1010A000A081B1819D012F5F3F4F318320838C93BD
:1010B000268137812F5F3F4F3783268314C08B01F2
:1010C000EC01FB010084F185E02D0995892BE1F607
:1010D000D80116968D919C911797019617969C931F
:1010E0008E931697CE01DF91CF911F910F910895A6
:1010F000FA01AA27283051F1203181F1E8946F9349
:101100006E7F6E5F7F4F8F4F9F4FAF4FB1E03ED0EE
:10111000B4E03CD0670F781F891F9A1FA11D680F8C
:10112000791F8A1F911DA11D6A0F711D811D911DBF
:10113000A11D20D009F468943F912AE0269F112434
:101140003019305D3193DEF6CF010895462F477098
:10115000405D4193B3E00FD0C9F7F6CF462F4F70F3
:10116000405D4A3318F0495D31FD4052419302D051
:10117000A9F7EACFB4E0A6959795879577956795F7
:10118000BA95C9F700976105710508959B01AC01F7
:101190000A2E06945795479537952795BA95C9F71E
:1011A000620F731F841F951FA01D08952F923F92F9
:1011B0004F925F926F927F928F929F92AF92BF9267
:1011C000CF92DF92EF92FF920F931F93CF93DF9313
:1011D000CDB7DEB7CA1BDB0B0FB6F894DEBF0FBE70
:1011E000CDBF09942A88398848885F846E847D84BD
:1011F0008C849B84AA84B984C884DF80EE80FD80BF
:101200000C811B81AA81B981CE0FD11D0FB6F89434
:0E121000DEBF0FBECDBFED010895F894FFCFF5
:10121E00AC01B001B401B801BC01C001C401C801E8
:10122E001F001C001F001E001F001E001F001F00BD
:10123E001E001F001E001F00253032643A2530327A
:10124E00643A253032642020323025303264002555
:10125E003032642E25303264202025642E25642001
:10126E0043005265636F7264696E672064617461D6
:10127E000025642056616C756573202025642E252B
:10128E0064204300416C726561647920446174612D
:10129E0000696E20746865204D656D6F727900452A
:1012AE006D707479204D656D6F7279005374617233
:1012BE0074205265636F7264696E67004D6F6E00C5
:1012CE005475650057656400546875004672690070
:0C12DE005361740053756E00457272007D
:00000001FF
