:1000000019C020C01FC01EC01DC01CC01BC01AC00C
:1000100019C018C017C047C015C039C013C012C0DE
:1000200011C010C00FC00EC00DC00CC00BC00AC064
:1000300009C008C011241FBECFEFD4E0DEBFCDBF82
:100040003ED08AC0DDCF20982198289A299A3898E6
:100050004098509A519A529A539A549AECE7F0E089
:100060001082808180648083EAE7F0E086E080830C
:100070008081806E8083E1E8F0E08081826080830F
:1000800088E39FE7909389008093880008951F92EA
:100090000F920FB60F9211245898599A0F900FBED5
:1000A0000F901F9018951F920F920FB60F92112468
:1000B000589A59980F900FBE0F901F901895C3DF54
:1000C0007894189910C081E28A95F1F70000189B86
:1000D000FECF80916F00826080936F0080916F00EF
:1000E000816080936F00199910C080916F008D7F9F
:1000F00080936F0080916F008E7F80936F0058987F
:100100005998109285001092840080917800909107
:1001100079008F3F910509F018F45A985B985C9824
:100120009C013A952F3F310509F018F45A9A5B98D3
:100130005C989C0132502F3F310509F018F45A9A0F
:100140005B9A5C9893508F3F910511F008F0B9CFFE
:0C0150005A9A5B9A5C9AB5CFF894FFCFE6
:00000001FF
