:1000000019C03EC048C01EC01DC01CC01BC01AC0C5
:1000100019C018C017C016C015C014C013C012C034
:1000200011C010C00FC00EC00DC00CC00BC00AC064
:1000300009C008C011241FBECFEFD4E0DEBFCDBF82
:1000400035D03DC0DDCF529853985A9A5B9A209A8A
:10005000219AE9E6F0E080818A6080838DB3836035
:100060008DBB0895882359F02FE73AE196E021509F
:1000700030409040E1F700C000008150F3CF089578
:100080001F920F920FB60F921124289A0F900FBE55
:100090000F901F9018951F920F920FB60F92112478
:1000A00028980F900FBE0F901F901895CCDF789472
:1000B000C2E085B18C2785B982E0D4DFFACFF8940D
:0200C000FFCF70
:00000001FF
